:100000000C9462000C948A000C948A000C948A0070
:100010000C948A000C948A000C948A000C948A0038
:100020000C948A000C948A000C948A000C948A0028
:100030000C948A000C948A000C948A000C948A0018
:100040000C948C010C948A000C9440040C9472045F
:100050000C948A000C948A000C948A000C948A00F8
:100060000C948A000C948A00000000080002010031
:100070000003040700000000000000000102040863
:100080001020408001020408102001020408102002
:10009000040404040404040402020202020203032E
:1000A00003030303000000002300260029000000D2
:1000B0000000250028002B0000000000240027007D
:1000C0002A00A20411241FBECFEFD8E0DEBFCDBFAF
:1000D00011E0A0E0B1E0EAE6FCE002C005900D927C
:1000E000A634B107D9F721E0A6E4B1E001C01D9222
:1000F000AA3FB207E1F710E0C4ECD0E004C02297B9
:10010000FE010E942F06C23CD107C9F70E94FC05E0
:100110000C9433060C94000026E040E855E260E0C1
:1001200070E08DE591E00E94DE0361E08DE00E94C9
:10013000630261E08CE00E94630261E08AE00E9459
:10014000630261E08BE00E94630260E082E00E9453
:10015000630260E089E00C94630289E00E94D202AD
:10016000019789F48091470181110DC010924901D6
:100170001092480161E071E08DE591E00E942E054A
:1001800081E080934701089561E08CE00C949C022B
:1001900060E08CE00C949C02CF92DF92EF92FF9291
:1001A0000E94D6016B017C0182E00E94D2029093F2
:1001B00051018093500180914701882319F00E94DA
:1001C000C40002C00E94C80080914C0190914D0172
:1001D000A0914E01B0914F01A7019601281B390B48
:1001E0004A0B5B0BDA01C90180319742A105B105C9
:1001F00078F1C0924C01D0924D01E0924E01F09204
:100200004F0180914701882319F180914A01909113
:100210004B010A97CCF4109247016DE071E08DE537
:1002200091E00E942E0565E171E08DE591E00E946C
:100230002E0560914801709149014AE050E08DE53A
:1002400091E00E94E30504C010924B0110924A0114
:100250008091500190915101019711F580914601D3
:1002600081111CC060914A0170914B016F5F7F4FFB
:1002700070934B0160934A0180914801909149012C
:100280000196909349018093480181E08093460153
:100290004AE050E08DE591E00E94E30561E003C093
:1002A0001092460160E08DE0FF90EF90DF90CF90DC
:1002B0000C949C0261E08BE00E949C0260E08AE06A
:1002C0000C949C0261E08AE00E949C0260E08BE05A
:1002D0000C949C0260E08AE00E949C0260E08BE04B
:1002E0000C949C0280914701882371F08EE00E945B
:1002F0001D0290935301809352018E35914014F466
:100300000C945A010C9462010C946A010E947201CF
:100310000E94AD000C94CC001F920F920FB60F926A
:1003200011242F933F938F939F93AF93BF9380910B
:10033000550190915601A0915701B091580130910B
:10034000540123E0230F2D3720F40196A11DB11D88
:1003500005C026E8230F0296A11DB11D209354016C
:100360008093550190935601A0935701B093580183
:100370008091590190915A01A0915B01B0915C016B
:100380000196A11DB11D8093590190935A01A0932C
:100390005B01B0935C01BF91AF919F918F913F91B1
:1003A0002F910F900FBE0F901F9018952FB7F894B4
:1003B00060915501709156018091570190915801BB
:1003C0002FBF0895789484B5826084BD84B5816020
:1003D00084BD85B5826085BD85B5816085BDEEE64D
:1003E000F0E0808181608083E1E8F0E0108280812C
:1003F00082608083808181608083E0E8F0E080819A
:1004000081608083E1EBF0E0808184608083E0EBB9
:10041000F0E0808181608083EAE7F0E080818460A1
:1004200080838081826080838081816080838081FD
:10043000806880831092C10008958E3008F08E503D
:1004400087702091000190E4299F90011124822B54
:1004500080937C0080917A00806480937A00809100
:100460007A0086FDFCCF809178002091790090E0A1
:10047000922B0895833081F028F4813099F08230F6
:10048000A1F008958730A9F08830B9F08430D1F414
:10049000809180008F7D03C0809180008F77809352
:1004A0008000089584B58F7702C084B58F7D84BDA8
:1004B00008958091B0008F7703C08091B0008F7D48
:1004C0008093B0000895CF93DF9390E0FC01E4584F
:1004D000FF4F2491FC01E057FF4F8491882349F19D
:1004E00090E0880F991FFC01E854FF4FA591B4914B
:1004F00082559F4FFC01C591D4919FB7611108C0EF
:10050000F8948C91209582238C93888182230AC051
:10051000623051F4F8948C91322F309583238C9370
:100520008881822B888304C0F8948C91822B8C93D1
:100530009FBFDF91CF9108950F931F93CF93DF93C8
:100540001F92CDB7DEB7282F30E0F901E859FF4FF1
:100550008491F901E458FF4F1491F901E057FF4FDE
:1005600004910023C9F0882321F069830E943A0294
:100570006981E02FF0E0EE0FFF1FE255FF4FA591DC
:10058000B4919FB7F8948C91611103C010958123A9
:1005900001C0812B8C939FBF0F90DF91CF911F9152
:1005A0000F910895CF93DF93282F30E0F901E85998
:1005B000FF4F8491F901E458FF4FD491F901E057BE
:1005C000FF4FC491CC2391F081110E943A02EC2F8D
:1005D000F0E0EE0FFF1FEC55FF4FA591B4912C9169
:1005E0002D2381E090E021F480E002C080E090E0E3
:1005F000DF91CF910895FC01818D228D90E0805C88
:100600009F4F821B91098F7399270895FC01918D4B
:10061000828D981731F0828DE80FF11D858D90E065
:1006200008958FEF9FEF0895FC01918D828D9817AB
:1006300061F0828DDF01A80FB11D5D968C91928DC6
:100640009F5F9F73928F90E008958FEF9FEF0895C3
:1006500088E994E0892B49F080E090E0892B29F02B
:100660000E94980481110C9400000895FC01848D6F
:10067000DF01A80FB11DA35ABF4F2C91848D90E0CC
:1006800001968F739927848FA689B7892C93A089A7
:10069000B1898C9180648C93938D848D981306C05E
:1006A0000288F389E02D80818F7D80830895CF9328
:1006B000DF93EC01888D8823C9F0EA89FB8980816A
:1006C00085FD05C0A889B9898C9186FD0FC00FB63C
:1006D00007FCF5CF808185FFF2CFA889B9898C917D
:1006E00085FFEDCFCE010E943603E7CFDF91CF919A
:1006F0000895CF92DF92FF920F931F93CF93DF93D2
:100700001F92CDB7DEB76C0181E0D60158968C936D
:1007100058975B969C915B975C968C915C9798132D
:1007200007C05096ED91FC915197808185FD2EC0B8
:10073000F601038D10E00F5F1F4F0F731127F02E8E
:10074000F601848DF81211C00FB607FCF9CFD6015F
:100750005096ED91FC915197808185FFF1CFC601B4
:1007600069830E9436036981EBCF838DE80FF11D09
:10077000E35AFF4F6083D6015B960C935B975296CA
:10078000ED91FC915397808180620CC0D601569602
:10079000ED91FC91579760835096ED91FC915197A4
:1007A00080818064808381E090E00F90DF91CF9121
:1007B0001F910F91FF90DF90CF900895BF92CF923D
:1007C000DF92EF92FF92CF93DF93EC016A017B01FE
:1007D000B22EE889F98982E08083411581EE5807BD
:1007E00061057105A1F060E079E08DE390E0A7017B
:1007F00096010E940B062150310941095109569575
:10080000479537952795211580E1380798F0E889B5
:10081000F989108260E874E88EE190E0A701960102
:100820000E940B06215031094109510956954795FF
:1008300037952795EC85FD853083EE85FF852083F0
:10084000188EEC89FD89B082EA89FB8980818061FC
:100850008083EA89FB89808188608083EA89FB89BB
:10086000808180688083EA89FB8980818F7D808395
:10087000DF91CF91FF90EF90DF90CF90BF900895E0
:100880001F920F920FB60F9211242F938F939F9365
:10089000EF93FF93E0916D01F0916E018081E09103
:1008A0007301F091740182FD12C0908180917601F4
:1008B0008F5F8F7320917701821751F0E09176015D
:1008C000F0E0E35AFE4F958F8093760101C080815E
:1008D000FF91EF919F918F912F910F900FBE0F90ED
:1008E0001F9018951F920F920FB60F9211242F93FD
:1008F0003F934F935F936F937F938F939F93AF93A8
:10090000BF93EF93FF938DE591E00E943603FF9133
:10091000EF91BF91AF919F918F917F916F915F9177
:100920004F913F912F910F900FBE0F901F901895F0
:100930008DE591E00E94FB0221E0892B09F420E083
:10094000822F08951092600110925F0188EE93E06B
:10095000A0E0B0E08093610190936201A0936301F5
:10096000B09364018AE291E090935E0180935D010F
:1009700085EC90E090936A018093690184EC90E0AB
:1009800090936C0180936B0180EC90E090936E01EA
:1009900080936D0181EC90E09093700180936F01E2
:1009A00082EC90E0909372018093710186EC90E06C
:1009B00090937401809373011092760110927701E5
:1009C00010927801109279010895CF92DF92EF9200
:1009D000FF920F931F93CF93DF937C016A01EB018A
:1009E00000E010E00C151D0571F06991D701ED9143
:1009F000FC910190F081E02DC7010995892B19F038
:100A00000F5F1F4FEFCFC801DF91CF911F910F9163
:100A1000FF90EF90DF90CF9008956115710581F000
:100A2000DB010D900020E9F7AD0141505109461B53
:100A3000570BDC01ED91FC910280F381E02D0994CC
:100A400080E090E00895DC01ED91FC910190F0814F
:100A5000E02D099466E371E00C940D050F931F934C
:100A6000CF93DF93EC010E940D058C01CE010E9413
:100A70002A05800F911FDF91CF911F910F9108954B
:100A80008F929F92AF92BF92CF92DF92EF92FF929E
:100A90000F931F93CF93DF93CDB7DEB7A1970FB618
:100AA000F894DEBF0FBECDBF7C01C42EE52FCB0175
:100AB000D22E19A221E02D1510F02AE0D22E8E019F
:100AC0000F5D1F4F8D2C912CA12CB12C6C2D7E2FE6
:100AD000A50194010E940B068C2DD29E8019112431
:100AE000015011098A3014F4805D01C0895CF8015D
:100AF0008083211531054105510521F0C22EE32FD8
:100B0000CA01E4CFB801C7010E940D05A1960FB636
:100B1000F894DEBF0FBECDBFDF91CF911F910F9133
:100B2000FF90EF90DF90CF90BF90AF909F908F900D
:100B30000895CF92DF92EF92FF920F931F93CF937E
:100B4000DF93EC016A017B012115310579F4E8811D
:100B5000F9810190F081E02D642FDF91CF911F91F9
:100B60000F91FF90EF90DF90CF9009942A303105DC
:100B7000E9F477FF1AC06DE20E9423058C01442737
:100B80005527BA014C195D096E097F092AE0CE018B
:100B90000E944005800F911FDF91CF911F910F910F
:100BA000FF90EF90DF90CF9008952AE0B701A60163
:100BB000CE01DF91CF911F910F91FF90EF90DF90C9
:100BC000CF900C9440050F931F93CF93DF93EC01CC
:100BD0009A01AB01662757FD6095762F0E94990513
:100BE0008C01CE010E942A05800F911FDF91CF91C9
:100BF0001F910F91089508950E94E2010E94FB0544
:100C00000E948C00C8E2D3E00E9486012097E1F3A5
:100C10000E942803F9CFA1E21A2EAA1BBB1BFD01DB
:100C20000DC0AA1FBB1FEE1FFF1FA217B307E407CB
:100C3000F50720F0A21BB30BE40BF50B661F771F23
:100C4000881F991F1A9469F7609570958095909503
:100C50009B01AC01BD01CF010895EE0FFF1F059070
:0A0C6000F491E02D0994F894FFCF01
:100C6A00015354415254204E41534F530053544F51
:100C7A00502E2E2E00544F54414C20494D50554C65
:100C8A005345533A2000000000007903E504FB02B3
:100C9A001403060357030D0A006E616E00696E663F
:060CAA00006F76660000F9
:107800000C94343C0C94513C0C94513C0C94513CE1
:107810000C94513C0C94513C0C94513C0C94513CB4
:107820000C94513C0C94513C0C94513C0C94513CA4
:107830000C94513C0C94513C0C94513C0C94513C94
:107840000C94513C0C94513C0C94513C0C94513C84
:107850000C94513C0C94513C0C94513C0C94513C74
:107860000C94513C0C94513C11241FBECFEFD8E036
:10787000DEBFCDBF11E0A0E0B1E0ECE9FFE702C060
:1078800005900D92A230B107D9F712E0A2E0B1E065
:1078900001C01D92AD30B107E1F70E942D3D0C945F
:1078A000CC3F0C94003C982F959595959595959582
:1078B000905D8F708A307CF0282F295A8091C0000B
:1078C00085FFFCCF9093C6008091C00085FFFCCF60
:1078D0002093C6000895282F205DF0CF982F809127
:1078E000C00085FFFCCF9093C6000895EF92FF92F1
:1078F0000F931F93EE24FF2487018091C00087FD22
:1079000017C00894E11CF11C011D111D81E4E8164B
:1079100082E4F8068FE0080780E0180770F3E09132
:107920000401F091050109958091C00087FFE9CF1E
:107930008091C6001F910F91FF90EF9008950E94D3
:10794000763C982F8091C00085FFFCCF9093C600B5
:1079500091362CF490330CF09053892F089597555D
:10796000892F08951F930E949F3C182F0E949F3CCF
:107970001295107F810F1F9108951F93182F882350
:1079800021F00E94763C1150E1F71F9108951F935A
:10799000182F0E94763C803249F0809103018F5F5E
:1079A000809303018530C1F01F9108958091C0003C
:1079B00085FFFCCF84E18093C6008091C00085FFE5
:1079C000FCCF1093C6008091C00085FFFCCF80E102
:1079D0008093C6001F910895E0910401F091050184
:1079E00009951F9108950E94763C803241F0809164
:1079F00003018F5F80930301853081F008958091AA
:107A0000C00085FFFCCF84E18093C6008091C00058
:107A100085FFFCCF80E18093C6000895E0910401CA
:107A2000F09105010995089540E951E08823A1F0FE
:107A30002D9A28EE33E0FA013197F1F721503040CA
:107A4000D1F72D9828EE33E0FA013197F1F7215064
:107A50003040D1F7815061F708953F924F925F9285
:107A60006F927F928F929F92AF92BF92CF92DF924E
:107A7000EF92FF920F931F93CF93DF93000080E16B
:107A80008093C4001092C50088E18093C10086E015
:107A90008093C2005098589A259A81E00E94143D24
:107AA00024E1F22E9EE1E92E85E9D82E0FE0C02ECA
:107AB00010E1B12EAA24A394B1E49B2EA6E58A2E50
:107AC000F2E57F2EE0E26E2E79E4572E63E5462E36
:107AD00050E5352E0E94763C8033B1F18133B9F107
:107AE000803409F46FC0813409F476C0823409F41B
:107AF00085C0853409F488C0803531F1823521F1A3
:107B0000813511F1853509F485C0863509F48DC0BC
:107B1000843609F496C0843709F403C1853709F423
:107B200072C1863709F466C0809103018F5F80932C
:107B30000301853079F6E0910401F0910501099582
:107B40000E94763C803351F60E94F33CC3CF0E94E2
:107B5000763C803249F78091C00085FFFCCFF092DF
:107B6000C6008091C00085FFFCCF9092C600809136
:107B7000C00085FFFCCF8092C6008091C00085FFC9
:107B8000FCCF7092C6008091C00085FFFCCF609250
:107B9000C6008091C00085FFFCCF5092C600809146
:107BA000C00085FFFCCF4092C6008091C00085FFD9
:107BB000FCCF3092C6008091C00085FFFCCFB09210
:107BC000C60088CF0E94763C863808F4BDCF0E945C
:107BD000763C0E94F33C7ECF0E94763C803809F4CC
:107BE0009CC0813809F40BC1823809F43CC1883942
:107BF00009F48FC080E00E94C73C6CCF84E10E94F2
:107C0000BD3C0E94F33C66CF85E00E94BD3C0E94D3
:107C1000F33C60CF0E94763C809306010E94763C44
:107C2000809307010E94F33C55CF0E94763C80333D
:107C300009F41DC183E00E94BD3C80E00E94C73C66
:107C400049CF0E94763C809309020E94763C809343
:107C5000080280910C028E7F80930C020E94763C79
:107C6000853409F415C18091080290910902892B8D
:107C700089F000E010E00E94763CF801E85FFE4FDA
:107C800080830F5F1F4F80910802909109020817AF
:107C9000190788F30E94763C803209F045CF809125
:107CA0000C0280FF01C16091060170910701660F0F
:107CB000771F7093070160930601A0910802B091AD
:107CC00009021097C9F0E8E0F1E09B01AD014E0F09
:107CD0005F1FF999FECF32BD21BD819180BDFA9A17
:107CE000F99A2F5F3F4FE417F50799F76A0F7B1F4B
:107CF00070930701609306018091C00085FFFCCF5F
:107D0000F092C6008091C00085FFFCCFB092C60003
:107D1000E1CE83E00E94C73CDDCE82E00E94C73CFA
:107D2000D9CE0E94763C809309020E94763C8093D3
:107D300008028091060190910701880F991F909386
:107D40000701809306010E94763C853409F4A6C0A1
:107D500080910C028E7F80930C020E94763C8032D0
:107D600009F0B8CE8091C00085FFFCCFF092C6002C
:107D7000609108027091090261157105B9F140E046
:107D800050E080910C02A82FA170B82FB27011C0E2
:107D9000BB2309F45CC0E0910601F0910701319624
:107DA000F0930701E09306014F5F5F4F46175707B7
:107DB000E8F4AA2369F3F999FECF209106013091E6
:107DC000070132BD21BDF89A90B58091C00085FFB2
:107DD000FCCF9093C6002F5F3F4F30930701209355
:107DE00006014F5F5F4F4617570718F38091C00099
:107DF00085FDE5CE8091C00085FFF8CFE0CE81E023
:107E00000E94C73C67CE0E94763C803209F08CCE3F
:107E10008091C00085FFFCCFF092C6008091C00029
:107E200085FFFCCFE092C6008091C00085FFFCCFAB
:107E3000D092C6008091C00085FFFCCFC092C600E2
:107E40008091C00085FFFCCFB092C60043CEE09188
:107E50000601F091070194918091C00085FFFCCF4D
:107E60009093C6009CCF80E10E94C73C33CE0E9415
:107E7000763C0E94763C182F0E94763C112309F430
:107E800083C0113009F484C08FE00E94C73C22CE29
:107E900080910C02816080930C02E5CE80910C02EF
:107EA000816080930C0259CF809107018823880F4D
:107EB000880B8A2180930B02809106019091070123
:107EC000880F991F90930701809306018091080203
:107ED00080FF09C080910802909109020196909359
:107EE000090280930802F894F999FECF1127E091D6
:107EF0000601F0910701C8E0D1E08091080290915D
:107F00000902103091F40091570001700130D9F34B
:107F100003E000935700E89500915700017001308D
:107F2000D9F301E100935700E89509901990009169
:107F3000570001700130D9F301E000935700E89534
:107F40001395103498F011270091570001700130FB
:107F5000D9F305E000935700E895009157000170B0
:107F60000130D9F301E100935700E895329602976A
:107F700009F0C7CF103011F00296E5CF112480919F
:107F8000C00085FFB9CEBCCE8EE10E94C73CA2CD19
:0C7F900085E90E94C73C9ECDF894FFCF0D
:027F9C00800063
:040000030000780081
:00000001FF
